{
  "_format": "hh-sol-artifact-1",
  "contractName": "Weather",
  "sourceName": "contracts/Weather.sol",
  "abi": [
    {
      "inputs": [
        {
          "internalType": "string",
          "name": "queryDate",
          "type": "string"
        }
      ],
      "name": "getData",
      "outputs": [
        {
          "internalType": "int256",
          "name": "",
          "type": "int256"
        }
      ],
      "stateMutability": "view",
      "type": "function"
    },
    {
      "inputs": [
        {
          "internalType": "int256[]",
          "name": "sampleData",
          "type": "int256[]"
        },
        {
          "internalType": "string[]",
          "name": "dateAsIndex",
          "type": "string[]"
        }
      ],
      "name": "storeData",
      "outputs": [],
      "stateMutability": "nonpayable",
      "type": "function"
    }
  ],
  "bytecode": "0x608060405234801561001057600080fd5b50610647806100206000396000f3fe608060405234801561001057600080fd5b50600436106100365760003560e01c8063953f87d31461003b578063ae55c88814610057575b600080fd5b6100556004803603810190610050919061030f565b610087565b005b610071600480360381019061006c919061037b565b61014e565b60405161007e9190610413565b60405180910390f35b60005b8251811015610149578281815181106100cc577f4e487b7100000000000000000000000000000000000000000000000000000000600052603260045260246000fd5b6020026020010151600083838151811061010f577f4e487b7100000000000000000000000000000000000000000000000000000000600052603260045260246000fd5b602002602001015160405161012491906103fc565b908152602001604051809103902081905550808061014190610553565b91505061008a565b505050565b6000808260405161015f91906103fc565b9081526020016040518091039020549050919050565b60006101886101838461045f565b61042e565b905080838252602082019050828560208602820111156101a757600080fd5b60005b858110156101d757816101bd88826102d0565b8452602084019350602083019250506001810190506101aa565b5050509392505050565b60006101f46101ef8461048b565b61042e565b9050808382526020820190508260005b85811015610234578135850161021a88826102e5565b845260208401935060208301925050600181019050610204565b5050509392505050565b600061025161024c846104b7565b61042e565b90508281526020810184848401111561026957600080fd5b610274848285610511565b509392505050565b600082601f83011261028d57600080fd5b813561029d848260208601610175565b91505092915050565b600082601f8301126102b757600080fd5b81356102c78482602086016101e1565b91505092915050565b6000813590506102df816105fa565b92915050565b600082601f8301126102f657600080fd5b813561030684826020860161023e565b91505092915050565b6000806040838503121561032257600080fd5b600083013567ffffffffffffffff81111561033c57600080fd5b6103488582860161027c565b925050602083013567ffffffffffffffff81111561036557600080fd5b610371858286016102a6565b9150509250929050565b60006020828403121561038d57600080fd5b600082013567ffffffffffffffff8111156103a757600080fd5b6103b3848285016102e5565b91505092915050565b6103c5816104fd565b82525050565b60006103d6826104e7565b6103e081856104f2565b93506103f0818560208601610520565b80840191505092915050565b600061040882846103cb565b915081905092915050565b600060208201905061042860008301846103bc565b92915050565b6000604051905081810181811067ffffffffffffffff82111715610455576104546105cb565b5b8060405250919050565b600067ffffffffffffffff82111561047a576104796105cb565b5b602082029050602081019050919050565b600067ffffffffffffffff8211156104a6576104a56105cb565b5b602082029050602081019050919050565b600067ffffffffffffffff8211156104d2576104d16105cb565b5b601f19601f8301169050602081019050919050565b600081519050919050565b600081905092915050565b6000819050919050565b6000819050919050565b82818337600083830152505050565b60005b8381101561053e578082015181840152602081019050610523565b8381111561054d576000848401525b50505050565b600061055e82610507565b91507fffffffffffffffffffffffffffffffffffffffffffffffffffffffffffffffff8214156105915761059061059c565b5b600182019050919050565b7f4e487b7100000000000000000000000000000000000000000000000000000000600052601160045260246000fd5b7f4e487b7100000000000000000000000000000000000000000000000000000000600052604160045260246000fd5b610603816104fd565b811461060e57600080fd5b5056fea26469706673582212209346501e3ed2d119d86a56948c2796e9ce0917951c56be0f5dc0f0819c185b3364736f6c63430008000033",
  "linkReferences": {},
  "deployedLinkReferences": {}
}